:100000000C943E000C9453000C9453000C94530039
:100010000C9453000C9453000C9453000C94530014
:100020000C9453000C9453000C9453000C94530004
:100030000C9453000C9453000C9453000C945300F4
:100040000C9453000C9453000C9453000C945300E4
:100050000C9453000C9453000C9453000C945300D4
:100060000C9453000C9453000C9453000C945300C4
:100070000C9453000C9453000C94530011241FBE95
:10008000CFEFD8E0DEBFCDBF11E0A0E0B1E0EAEAFB
:10009000F4E002C005900D92A631B107D9F70E9495
:1000A00017020C9453020C9400001092C5008FECC0
:1000B0008093C4001092C000E1ECF0E08081886180
:1000C0008083E2ECF0E080818660808308959091E7
:1000D000C00095FFFCCF8093C6000895089580EA84
:1000E000809300011092B90080E28093B8000895D7
:1000F00020E8FC0120830C946F00982F93708913E3
:1001000005C0880F806A8093000108958FEF0895DD
:1001100094EA24E89093BC008091BC0087FFFCCF58
:10012000809100018093BB002093BC008091BC00B3
:1001300087FFFCCF8091B900883161F784EA809312
:10014000BC008091BC0087FFFCCF809100018093B0
:10015000BB0084E88093BC008091BC0087FFFCCF8B
:100160007093BB0084E88093BC008091BC0087FF43
:10017000FCCF6093BB0084E88093BC008091BC00FE
:1001800087FFFCCF8091BC0087FFFCCF84EA80937F
:10019000BC008091BC0087FFFCCF809100018F5F85
:1001A0008093BB0084E88093BC008091BC0087FFF3
:1001B000FCCF84E88093BC008091BC0087FFFCCF1B
:1001C0008091BB00FA01808384E98093BC0080E0C9
:1001D000089594EA34E89093BC008091BC0087FFB6
:1001E000FCCF809100018093BB003093BC008091D4
:1001F000BC0087FFFCCF8091B900883161F784EAA9
:100200008093BC008091BC0087FFFCCF80910001EF
:100210008093BB0084E88093BC008091BC0087FF82
:10022000FCCF7093BB0084E88093BC008091BC003D
:1002300087FFFCCF6093BB0084E88093BC00809173
:10024000BC0087FFFCCF84EA8093BC008091BC0097
:1002500087FFFCCF809100018F5F8093BB0084E813
:100260008093BC008091BC0087FFFCCFFA0184EC36
:10027000222371F0213009F484E88093BC0090912E
:10028000BC0097FFFCCF9091BB0091932150F0CF21
:1002900084E98093BC0080E0089594EA24E8909378
:1002A000BC008091BC0087FFFCCF8091000180934F
:1002B000BB002093BC008091BC0087FFFCCF8091E5
:1002C000B900883161F784EA8093BC008091BC005A
:1002D00087FFFCCF809100018093BB0084E880936E
:1002E000BC008091BC0087FFFCCF7093BB0084E80A
:1002F0008093BC008091BC0087FFFCCF6093BB0063
:1003000084E88093BC008091BC0087FFFCCF4093C1
:10031000BB0084E88093BC008091BC0087FFFCCFC9
:1003200084E98093BC0080E00895260F372F311DAB
:10033000FC0180818150990B862B972B2817390758
:1003400018F09C012F5F3F4F822F861B24EA34E870
:100350002093BC009091BC0097FFFCCF90910001CE
:100360009093BB003093BC009091BC0097FFFCCFF2
:100370009091B900983161F794EA9093BC00909104
:10038000BC0097FFFCCF909100019093BB0094E8D4
:100390009093BC009091BC0097FFFCCF7093BB0082
:1003A00094E89093BC009091BC0097FFFCCF6093C1
:1003B000BB0094E89093BC009091BC0097FFFCCFE9
:1003C000FA01982F24E8992359F031913093BB001A
:1003D0002093BC003091BC0037FFFCCF9150F3CF8D
:1003E00094E99093BC000895CF92DF92EF92FF9230
:1003F0000F931F93CF936C017B018A01C22F2C2F87
:10040000A801B701C6010E949501282F30E0E20E35
:10041000F31EC81B020F131FC111F1CF80E0CF9153
:100420001F910F91FF90EF90DF90CF900895CF92A2
:10043000DF92EF92FF921F93CF93DF93CDB7DEB79A
:1004400065970FB6F894DEBF0FBECDBF0E94550072
:1004500085E1E1E0F1E0DE01119601900D928A95CF
:10046000E1F714E66E0185E1C80ED11CFE0131965C
:100470007F01F70181917F010E946700CE14DF04A4
:10048000C1F7115099F790E080E065960FB6F894A7
:10049000DEBF0FBECDBFDF91CF911F91FF90EF90D8
:0A04A000DF90CF900895F894FFCF8D
:1004AA00A04C6520726F626F7420656E20494E46BB
:0604BA00313930300A0068
:00000001FF
