:100000000C943E000C945B000C945B000C945B0021
:100010000C945B000C945B000C945B000C945B00F4
:100020000C945B000C945B000C945B000C945B00E4
:100030000C945B000C945B000C945B000C945B00D4
:100040000C945B000C945B000C945B000C945B00C4
:100050000C945B000C945B000C945B000C945B00B4
:100060000C945B000C945B000C945B000C945B00A4
:100070000C945B000C945B000C945B0011241FBE7D
:10008000CFEFD8E0DEBFCDBF11E0A0E0B1E0EEE9F8
:10009000F4E002C005900D92A230B107D9F721E03B
:1000A000A2E0B1E001C01D92A530B207E1F70E94C5
:1000B000E6000C944D020C940000CF92DF92EF9278
:1000C000FF92CF9380910201883C48F51092020183
:1000D0006091020170E090E080E00E942B0120E03E
:1000E00030E040EA50E40E9494016B017C01C09131
:1000F00000016C2F70E090E080E00E942B019B01DA
:10010000AC01C701B6010E948F01181664F4C093B8
:100110000201CF91FF90EF90DF90CF900895885C1F
:1001200080930201D5CFC701B6010E94FA00609307
:100130000201EFCF65E00E94C2009093040180931A
:10014000030196958795969587958093020108956A
:1001500080E091E02AE030910001831748F430916B
:100160000201831718F425B98F5FF5CF95B9FCCF3D
:10017000089510927C0086E880937A00089510928A
:100180007A00089580917C00807E80937C0080912D
:100190007C006770682B60937C0080917A0080649B
:1001A00080937A0080917A0084FFFCCF80917A005E
:1001B000806180937A002091780090917900892F56
:1001C00090E0982F8827820F911D0895CF93DF9399
:1001D0001F92CDB7DEB78FEF84B9CE0101960E9492
:1001E000B900CE0101960E949A000E945D000E9413
:1001F000A800F7CF0E946E0188F09F5798F0B92FA2
:100200009927B751B0F0E1F0660F771F881F991F4B
:100210001AF0BA95C9F714C0B13091F00E94880164
:10022000B1E008950C948801672F782F8827B85F74
:1002300039F0B93FCCF3869577956795B395D9F7A3
:100240003EF490958095709561957F4F8F4F9F4FAD
:100250000895E89409C097FB3EF4909580957095B9
:1002600061957F4F8F4F9F4F9923A9F0F92F96E902
:10027000BB279395F695879577956795B795F11177
:10028000F8CFFAF4BB0F11F460FF1BC06F5F7F4F14
:100290008F4F9F4F16C0882311F096E911C0772326
:1002A00021F09EE8872F762F05C0662371F096E82F
:1002B000862F70E060E02AF09A95660F771F881FFE
:1002C000DAF7880F9695879597F9089557FD905816
:1002D000440F551F59F05F3F71F04795880F97FB0A
:1002E000991F61F09F3F79F08795089512161306C4
:1002F0001406551FF2CF4695F1DF08C016161706F3
:100300001806991FF1CF8695710561050894089527
:10031000E894BB2766277727CB0197F908950E94B9
:10032000010208F48FEF08950E94A7010C943C028B
:100330000E942E0238F00E94350220F0952311F021
:100340000C9425020C942B0211240C9489010E9418
:10035000660170F3959FC1F3950F50E0551F629FA2
:10036000F001729FBB27F00DB11D639FAA27F00D0E
:10037000B11DAA1F649F6627B00DA11D661F829F35
:100380002227B00DA11D621F739FB00DA11D621F1A
:10039000839FA00D611D221F749F3327A00D611D37
:1003A000231F849F600D211D822F762F6A2F112419
:1003B0009F5750409AF0F1F088234AF0EE0FFF1F4C
:1003C000BB1F661F771F881F91505040A9F79E3FA3
:1003D000510580F00C9425020C9489015F3FE4F3F1
:1003E000983ED4F3869577956795B795F795E795F9
:1003F0009F5FC1F7FE2B880F911D9695879597F902
:100400000895990F0008550FAA0BE0E8FEEF1616A5
:100410001706E807F907C0F012161306E407F507F8
:1004200098F0621B730B840B950B39F40A2661F06C
:10043000232B242B252B21F408950A2609F4A1400F
:10044000A6958FEF811D811D089597F99F6780E81C
:1004500070E060E008959FEF80EC089500240A9416
:100460001616170618060906089500240A9412168F
:100470001306140605060895092E0394000C11F4C2
:10048000882352F0BB0F40F4BF2B11F460FF04C06F
:0E0490006F5F7F4F8F4F9F4F0895F894FFCFFF
:02049E00FF005D
:00000001FF
