:100000000C943E000C9452000C9450000C94500040
:100010000C9450000C9450000C9450000C94500020
:100020000C9450000C9450000C9450000C94500010
:100030000C9450000C9450000C9450000C94500000
:100040000C9450000C9450000C9450000C945000F0
:100050000C9450000C9450000C9450000C945000E0
:100060000C9450000C9450000C9450000C945000D0
:100070000C9450000C9450000C94500011241FBE9E
:10008000CFEFD8E0DEBFCDBF21E0A0E0B1E001C0FE
:100090001D92A130B207E1F70E9492000C94B900C2
:1000A0000C9400001F920F920FB60F9211248F93A1
:1000B0009F938FE59AEE0197F1F700C000008091C1
:1000C00000018230D9F060F4882391F08130A1F0F2
:1000D000E09A9F918F910F900FBE0F901F901895EF
:1000E000843081F068F0853099F710920001F0CFEC
:1000F00081E080930001ECCF82E0FBCF83E0F9CF79
:1001000084E0F7CF85E0F5CFF8948FEF81B984B91B
:1001100087B91AB8E89AE9E6F0E0808181608083C7
:10012000789408950E94840092E021E0809100017B
:100130008230C9F098F48823C1F08130B9F788B9CA
:10014000EFE6F7E13197F1F700C0000098B9EFE66C
:10015000F7E13197F1F700C00000E8CF843039F0C3
:1001600020F0853019F728B9E1CF98B9DFCF18B85A
:06017000DDCFF894FFCF83
:00000001FF
