:100000000C943E000C9448000C9448000C9448005A
:100010000C9448000C9448000C9448000C94480040
:100020000C9448000C9448000C9448000C94480030
:100030000C9448000C9448000C9448000C94480020
:100040000C9448000C9448000C9448000C94480010
:100050000C9448000C9448000C9448000C94480000
:100060000C9448000C9448000C9448000C944800F0
:100070000C9448000C9448000C94480011241FBEB6
:10008000CFEFD8E0DEBFCDBF0E9466000C948100A8
:100090000C94000030E020E0281739074CF4EFEC16
:1000A000F7E03197F1F700C000002F5F3F4FF4CF2A
:1000B000089530E020E0281739073CF442E04A95E3
:1000C000F1F700C02F5F3F4FF6CF08958FEF81B952
:1000D000FF24F394C4E0D0E010E000E009371105FC
:1000E00069F0F8B890E080E00E944A0018B880E11A
:1000F00090E00E944A000F5F1F4FF0CF219761F7F9
:06010000E9CFF894FFCFE7
:00000001FF
