:100000000C943E000C9450000C9450000C94500042
:100010000C9450000C9450000C9450000C94500020
:100020000C9450000C9450000C9450000C94500010
:100030000C9450000C9450000C9450000C94500000
:100040000C9450000C9450000C9450000C945000F0
:100050000C9450000C9450000C9450000C945000E0
:100060000C9450000C9450000C9450000C945000D0
:100070000C9450000C9450000C94500011241FBE9E
:10008000CFEFD8E0DEBFCDBF21E0A0E0B1E001C0FE
:100090001D92A330B207E1F70E94E4000C94EA003D
:1000A0000C94000089B1809302018FE59AEE0197CC
:1000B000F1F700C0000099B18091020198279C706F
:1000C00081E009F080E0089580910001823069F1BB
:1000D00028F4882359F08130A1F00895843009F480
:1000E0003FC088F1853009F460C008954A996BC01B
:1000F0000E945200882309F466C081E080930001C9
:1001000008952FEF80E792E0215080409040E1F782
:1001100000C00000809101018F5F8093010188374A
:1001200010F44A9B50C082E0E9CF81E085B92FEFFF
:1001300084E39CE0215080409040E1F700C0000043
:1001400015B883E0DBCF2FEF83ED90E321508040A3
:100150009040E1F700C000008AE085B984E0CECF8E
:10016000809101018230F0F08250809301018AE099
:1001700085B92FE78AE196E0215080409040E1F771
:1001800000C0000015B82FE78AE196E021508040BA
:100190009040E1F700C0000080910101811113C07F
:1001A00085E0ACCF10920101E2CF81E085B92FEF5D
:1001B00089E698E1215080409040E1F700C00000BE
:1001C00015B81092000108958FEF84B91AB80E94F3
:0801D0006400FDCFF894FFCF9D
:00000001FF
