:100000000C943E000C9462000C9450000C94500030
:100010000C9450000C9450000C9450000C94500020
:100020000C9450000C9450000C9450000C94500010
:100030000C9450000C9490000C9450000C945000C0
:100040000C9450000C9450000C9450000C945000F0
:100050000C9450000C9450000C9450000C945000E0
:100060000C9450000C9450000C9450000C945000D0
:100070000C9450000C9450000C94500011241FBE9E
:10008000CFEFD8E0DEBFCDBF21E0A0E0B1E001C0FE
:100090001D92A430B207E1F70E94C4000C94F7004F
:1000A0000C94000089B1809303018FE59AEE0197CB
:1000B000F1F700C0000029B19091030181E02913FC
:1000C00080E008951F920F920FB60F9211242F9384
:1000D0003F934F935F936F937F938F939F93AF93D0
:1000E000BF93EF93FF930E945200882339F08091D1
:1000F0000001882319F081E080930101E09AFF91CB
:10010000EF91BF91AF919F918F917F916F915F918F
:100110004F913F912F910F900FBE0F901F90189508
:100120001F920F920FB60F9211248F9381E080934C
:1001300002018F910F900FBE0F901F901895E1E86C
:10014000F0E08081856080830895F894E89AE9E67C
:10015000F0E080818360808310928500109284009B
:1001600084E89EE19093890080938800E0E8F0E0C5
:1001700080818868808310928200EFE6F0E08081C1
:1001800082608083789408958FEF84B915B80E94B7
:10019000A5002FEF83E294EF215080409040E1F7DB
:1001A00000C000008AE085B92FEF80E792E021507F
:1001B00080409040E1F700C0000015B881E08093D6
:1001C00000010E949F0080910201811104C0809172
:1001D00001018823C1F3F89480910201882329F05A
:1001E0008AE085B990E080E0089581E0FACFF89444
:0201F000FFCF3F
:00000001FF
