:100000000C943E000C9450000C9450000C94500042
:100010000C9450000C9450000C9450000C94500020
:100020000C9450000C9450000C9450000C94500010
:100030000C9450000C9450000C9450000C94500000
:100040000C9450000C9450000C9450000C945000F0
:100050000C9450000C9450000C9450000C945000E0
:100060000C9450000C9450000C9450000C945000D0
:100070000C9450000C9450000C94500011241FBE9E
:10008000CFEFD8E0DEBFCDBF21E0A0E0B1E001C0FE
:100090001D92A130B207E1F70E94A3000C94B900B1
:1000A0000C940000809100018230F9F028F488233C
:1000B00041F08130A1F008958330E9F0843009F1F6
:1000C000089581E0809300018FE390E09093890090
:1000D0008093880090938B0080938A00089582E03B
:1000E000809300018FE790E0F1CF83E080930001DF
:1000F0008FEB90E0EBCF84E0809300018FEF90E0F6
:10010000E5CF1092000110928900109288001092A1
:100110008B0010928A000895F89410928900109232
:10012000880010928B0010928A00E0E8F0E0808155
:10013000816A8083E1E8F0E08081826080831092B0
:100140008200789408958FEF8AB90E948C0082E033
:1001500090E090938500809384002FEF83ED90E3EF
:10016000215080409040E1F700C000000E94520002
:06017000F4CFF894FFCF6C
:00000001FF
