:100000000C943E000C9448000C9448000C9448005A
:100010000C9448000C9448000C9448000C94480040
:100020000C9448000C9448000C9448000C94480030
:100030000C9448000C9448000C9448000C94480020
:100040000C9448000C9448000C9448000C94480010
:100050000C9448000C9448000C9448000C94480000
:100060000C9448000C9448000C9448000C944800F0
:100070000C9448000C9448000C94480011241FBEB6
:10008000CFEFD8E0DEBFCDBF0E9457000C946D00CB
:100090000C94000030E020E0281739073CF442E0DF
:1000A0004A95F1F700C02F5F3F4FF6CF08958FEFCD
:1000B00081B912E080EBE82E84E0F82EC0EBD4E0AA
:1000C00012B9CE010E944A0012B8C7018C1B9D0BC9
:0E00D0000E944A002197A1F7F1CFF894FFCFCC
:00000001FF
