:100000000C943E000C94D4000C9450000C945000BE
:100010000C9450000C9450000C9450000C94500020
:100020000C9450000C9450000C9450000C94500010
:100030000C9450000C9450000C9450000C94500000
:100040000C9450000C9450000C9450000C945000F0
:100050000C9450000C9450000C9450000C945000E0
:100060000C9450000C9450000C9450000C945000D0
:100070000C9450000C9450000C94500011241FBE9E
:10008000CFEFD8E0DEBFCDBF21E0A0E0B1E001C0FE
:100090001D92A330B207E1F70E940D010C943E01BE
:1000A0000C94000089B1809301018FE59AEE0197CD
:1000B000F1F700C0000029B19091010181E02913FE
:1000C00080E008950F931F93CF93DF93EC018B0192
:1000D0000E945200882361F0F8018081882341F05A
:1000E00099B198831082DF91CF911F910F9108955C
:1000F00099B181E02881291301C080E0F801808353
:1001000089B1888380E0EFCF6AE070E00E94160139
:10011000892B19F48AE085B9089581E0FCCF9C0110
:1001200090910001923049F138F4992399F091307F
:10013000D9F0109202010895943079F130F19530A0
:10014000C1F781E085B980910201882391F3109273
:100150000001EFCF8AE085B980910201882349F33D
:1001600081E080930001E5CFC9010E948400809165
:1001700002018823F1F282E0F4CF81E085B9809119
:1001800002018823B1F283E0ECCF8AE085B9809147
:100190000201882371F284E0E4CF15B88091020156
:1001A000882339F285E0DDCF1F920F920FB60F92B0
:1001B00011242F933F934F935F936F937F938F936C
:1001C0009F93AF93BF93EF93FF930E9452008823B6
:1001D00019F081E08093020190E080E00E948F009E
:1001E000E09AFF91EF91BF91AF919F918F917F9195
:1001F0006F915F914F913F912F910F900FBE0F9094
:100200001F901895F8948FEF84B9E89AE9E6F0E02A
:10021000808181608083789408950E940201D0E0FB
:10022000C0E0CE010E948F002196FBCF97FB072EE6
:1002300016F4009407D077FD09D00E942A0107FC2C
:1002400005D03EF4909581959F4F089570956195E6
:100250007F4F0895AA1BBB1B51E107C0AA1FBB1FFC
:10026000A617B70710F0A61BB70B881F991F5A9542
:10027000A9F780959095BC01CD010895F894FFCF22
:00000001FF
